{"abi":[{"type":"constructor","inputs":[{"name":"protocolOwner","type":"address","internalType":"address"}],"stateMutability":"nonpayable"},{"type":"fallback","stateMutability":"payable"},{"type":"receive","stateMutability":"payable"},{"type":"function","name":"MAX_DURATION","inputs":[],"outputs":[{"name":"","type":"uint64","internalType":"uint64"}],"stateMutability":"view"},{"type":"function","name":"PAUSE_DELAY","inputs":[],"outputs":[{"name":"","type":"uint256","internalType":"uint256"}],"stateMutability":"view"},{"type":"function","name":"USDC","inputs":[],"outputs":[{"name":"","type":"address","internalType":"address"}],"stateMutability":"view"},{"type":"function","name":"campaignCount","inputs":[],"outputs":[{"name":"","type":"uint256","internalType":"uint256"}],"stateMutability":"view"},{"type":"function","name":"campaignEndTime","inputs":[{"name":"id","type":"uint256","internalType":"uint256"}],"outputs":[{"name":"","type":"uint64","internalType":"uint64"}],"stateMutability":"view"},{"type":"function","name":"campaignOwner","inputs":[{"name":"id","type":"uint256","internalType":"uint256"}],"outputs":[{"name":"","type":"address","internalType":"address"}],"stateMutability":"view"},{"type":"function","name":"campaignStatus","inputs":[{"name":"id","type":"uint256","internalType":"uint256"}],"outputs":[{"name":"","type":"uint8","internalType":"uint8"}],"stateMutability":"view"},{"type":"function","name":"campaignVault","inputs":[{"name":"id","type":"uint256","internalType":"uint256"}],"outputs":[{"name":"","type":"address","internalType":"address"}],"stateMutability":"view"},{"type":"function","name":"campaigns","inputs":[{"name":"","type":"uint256","internalType":"uint256"}],"outputs":[{"name":"owner","type":"address","internalType":"address"},{"name":"vault","type":"address","internalType":"address"},{"name":"endTime","type":"uint64","internalType":"uint64"},{"name":"active","type":"bool","internalType":"bool"},{"name":"metadataURI","type":"string","internalType":"string"},{"name":"raisedETH","type":"uint256","internalType":"uint256"},{"name":"raisedUSDC","type":"uint256","internalType":"uint256"}],"stateMutability":"view"},{"type":"function","name":"cancelPauseRequest","inputs":[],"outputs":[],"stateMutability":"nonpayable"},{"type":"function","name":"closeCampaign","inputs":[{"name":"id","type":"uint256","internalType":"uint256"}],"outputs":[],"stateMutability":"nonpayable"},{"type":"function","name":"createCampaign","inputs":[{"name":"campaignOwner_","type":"address","internalType":"address"},{"name":"endTime","type":"uint64","internalType":"uint64"},{"name":"metadataURI","type":"string","internalType":"string"}],"outputs":[{"name":"campaignId","type":"uint256","internalType":"uint256"}],"stateMutability":"nonpayable"},{"type":"function","name":"donateETH","inputs":[{"name":"id","type":"uint256","internalType":"uint256"}],"outputs":[],"stateMutability":"payable"},{"type":"function","name":"donateUSDC","inputs":[{"name":"id","type":"uint256","internalType":"uint256"},{"name":"amount","type":"uint256","internalType":"uint256"}],"outputs":[],"stateMutability":"nonpayable"},{"type":"function","name":"extendCampaign","inputs":[{"name":"id","type":"uint256","internalType":"uint256"},{"name":"newEndTime","type":"uint64","internalType":"uint64"}],"outputs":[],"stateMutability":"nonpayable"},{"type":"function","name":"getCampaign","inputs":[{"name":"id","type":"uint256","internalType":"uint256"}],"outputs":[{"name":"","type":"tuple","internalType":"struct Forwarder.Campaign","components":[{"name":"owner","type":"address","internalType":"address"},{"name":"vault","type":"address","internalType":"address"},{"name":"endTime","type":"uint64","internalType":"uint64"},{"name":"active","type":"bool","internalType":"bool"},{"name":"metadataURI","type":"string","internalType":"string"},{"name":"raisedETH","type":"uint256","internalType":"uint256"},{"name":"raisedUSDC","type":"uint256","internalType":"uint256"}]}],"stateMutability":"view"},{"type":"function","name":"owner","inputs":[],"outputs":[{"name":"","type":"address","internalType":"address"}],"stateMutability":"view"},{"type":"function","name":"pause","inputs":[],"outputs":[],"stateMutability":"nonpayable"},{"type":"function","name":"pauseRequestedAt","inputs":[],"outputs":[{"name":"","type":"uint256","internalType":"uint256"}],"stateMutability":"view"},{"type":"function","name":"paused","inputs":[],"outputs":[{"name":"","type":"bool","internalType":"bool"}],"stateMutability":"view"},{"type":"function","name":"raisedETH","inputs":[{"name":"id","type":"uint256","internalType":"uint256"}],"outputs":[{"name":"","type":"uint256","internalType":"uint256"}],"stateMutability":"view"},{"type":"function","name":"raisedUSDC","inputs":[{"name":"id","type":"uint256","internalType":"uint256"}],"outputs":[{"name":"","type":"uint256","internalType":"uint256"}],"stateMutability":"view"},{"type":"function","name":"renounceOwnership","inputs":[],"outputs":[],"stateMutability":"nonpayable"},{"type":"function","name":"requestPause","inputs":[],"outputs":[],"stateMutability":"nonpayable"},{"type":"function","name":"transferOwnership","inputs":[{"name":"newOwner","type":"address","internalType":"address"}],"outputs":[],"stateMutability":"nonpayable"},{"type":"function","name":"unpause","inputs":[],"outputs":[],"stateMutability":"nonpayable"},{"type":"function","name":"updateMetadata","inputs":[{"name":"id","type":"uint256","internalType":"uint256"},{"name":"uri","type":"string","internalType":"string"}],"outputs":[],"stateMutability":"nonpayable"},{"type":"function","name":"usdcAddress","inputs":[],"outputs":[{"name":"","type":"address","internalType":"address"}],"stateMutability":"pure"},{"type":"event","name":"CampaignClosed","inputs":[{"name":"campaignId","type":"uint256","indexed":true,"internalType":"uint256"}],"anonymous":false},{"type":"event","name":"CampaignCreated","inputs":[{"name":"campaignId","type":"uint256","indexed":true,"internalType":"uint256"},{"name":"owner","type":"address","indexed":true,"internalType":"address"},{"name":"vault","type":"address","indexed":true,"internalType":"address"},{"name":"endTime","type":"uint64","indexed":false,"internalType":"uint64"},{"name":"metadataURI","type":"string","indexed":false,"internalType":"string"}],"anonymous":false},{"type":"event","name":"CampaignExtended","inputs":[{"name":"campaignId","type":"uint256","indexed":true,"internalType":"uint256"},{"name":"newEndTime","type":"uint64","indexed":false,"internalType":"uint64"}],"anonymous":false},{"type":"event","name":"Donated","inputs":[{"name":"campaignId","type":"uint256","indexed":true,"internalType":"uint256"},{"name":"donor","type":"address","indexed":true,"internalType":"address"},{"name":"token","type":"address","indexed":true,"internalType":"address"},{"name":"amount","type":"uint256","indexed":false,"internalType":"uint256"}],"anonymous":false},{"type":"event","name":"MetadataUpdated","inputs":[{"name":"campaignId","type":"uint256","indexed":true,"internalType":"uint256"},{"name":"metadataURI","type":"string","indexed":false,"internalType":"string"}],"anonymous":false},{"type":"event","name":"OwnershipTransferred","inputs":[{"name":"previousOwner","type":"address","indexed":true,"internalType":"address"},{"name":"newOwner","type":"address","indexed":true,"internalType":"address"}],"anonymous":false},{"type":"event","name":"PauseCancelled","inputs":[],"anonymous":false},{"type":"event","name":"PauseRequested","inputs":[{"name":"requestedAt","type":"uint256","indexed":false,"internalType":"uint256"},{"name":"readyAt","type":"uint256","indexed":false,"internalType":"uint256"}],"anonymous":false},{"type":"event","name":"PausedSet","inputs":[{"name":"paused","type":"bool","indexed":false,"internalType":"bool"}],"anonymous":false},{"type":"error","name":"AlreadyPaused","inputs":[]},{"type":"error","name":"CampaignEnded","inputs":[]},{"type":"error","name":"CampaignInactive","inputs":[]},{"type":"error","name":"CampaignNotFound","inputs":[]},{"type":"error","name":"CannotRenounceWhilePaused","inputs":[]},{"type":"error","name":"CannotRenounceWithPendingPause","inputs":[]},{"type":"error","name":"DirectCallNotAllowed","inputs":[]},{"type":"error","name":"DirectEthNotAllowed","inputs":[]},{"type":"error","name":"DurationTooLong","inputs":[]},{"type":"error","name":"EndTimePast","inputs":[]},{"type":"error","name":"EthForwardFailed","inputs":[]},{"type":"error","name":"MetadataRequired","inputs":[]},{"type":"error","name":"NoAmount","inputs":[]},{"type":"error","name":"NoValue","inputs":[]},{"type":"error","name":"NotAuthorized","inputs":[]},{"type":"error","name":"NotOwner","inputs":[]},{"type":"error","name":"NotPaused","inputs":[]},{"type":"error","name":"OwnerZero","inputs":[]},{"type":"error","name":"PauseAlreadyRequested","inputs":[]},{"type":"error","name":"PauseDelayNotPassed","inputs":[{"name":"readyAt","type":"uint256","internalType":"uint256"}]},{"type":"error","name":"PauseNotRequested","inputs":[]},{"type":"error","name":"Paused","inputs":[]},{"type":"error","name":"Reentrancy","inputs":[]},{"type":"error","name":"SafeERC20TransferFromFailed","inputs":[]}],"bytecode":{"object":"0x6080604052600180553480156012575f80fd5b50604051612cca380380612cca833981016040819052602f9160a3565b806001600160a01b038116605657604051631f05a2bf60e11b815260040160405180910390fd5b5f80546001600160a01b0319166001600160a01b03831690811782556040519091907f8be0079c531659141344cd1fd0a4f28419497f9722a3daafe3b4186f6b6457e0908290a3505060ce565b5f6020828403121560b2575f80fd5b81516001600160a01b038116811460c7575f80fd5b9392505050565b612bef806100db5f395ff3fe6080604052600436106101ba575f3560e01c8063715018a6116100eb5780638da5cb5b11610089578063ab83f98a11610063578063ab83f98a14610510578063b0e1c1e114610523578063b1724b4614610542578063f2fde38b14610559576101d8565b80638da5cb5b1461049c57806397db5dfc146104ba578063a5a14398146104f1576101d8565b80637d14a857116100c55780637d14a857146104115780638129d46e146104305780638456cb591461046157806389a3027114610475576101d8565b8063715018a6146103c95780637274e30d146103dd5780637447b927146103f2576101d8565b80633f4ba83a116101585780635598f8cc116101325780635598f8cc14610336578063599105ca146103625780635c975abb146103815780636702edd4146103aa576101d8565b80633f4ba83a146102ee5780634ee670b81461030257806353c8388e14610317576101d8565b80631646ec19116101945780631646ec19146102815780631e935ab1146102ae57806320677f34146102c4578063342aea99146102da576101d8565b806302d45457146101f1578063110b877714610230578063141961bc1461024f576101d8565b366101d857604051639168bf9960e01b815260040160405180910390fd5b604051633921c70360e01b815260040160405180910390fd5b3480156101fc575f80fd5b5073833589fcd6edb6e08f4c7c32d4f71b54bda029135b6040516001600160a01b0390911681526020015b60405180910390f35b34801561023b575f80fd5b5061021361024a366004611aab565b610578565b34801561025a575f80fd5b5061026e610269366004611aab565b6105ce565b6040516102279796959493929190611af0565b34801561028c575f80fd5b506102a061029b366004611aab565b6106ac565b604051908152602001610227565b3480156102b9575f80fd5b506102c26106f8565b005b3480156102cf575f80fd5b506102a06201518081565b3480156102e5575f80fd5b506102c26107b6565b3480156102f9575f80fd5b506102c2610831565b34801561030d575f80fd5b506102a060055481565b348015610322575f80fd5b506102c2610331366004611b8c565b6108c1565b348015610341575f80fd5b50610355610350366004611aab565b610a24565b6040516102279190611bd3565b34801561036d575f80fd5b5061021361037c366004611aab565b610ba2565b34801561038c575f80fd5b5060045461039a9060ff1681565b6040519015158152602001610227565b3480156103b5575f80fd5b506102c26103c4366004611c69565b610bf7565b3480156103d4575f80fd5b506102c2610e2b565b3480156103e8575f80fd5b506102a060025481565b3480156103fd575f80fd5b506102a061040c366004611ca9565b610ee6565b34801561041c575f80fd5b506102a061042b366004611aab565b6111f6565b34801561043b575f80fd5b5061044f61044a366004611aab565b611243565b60405160ff9091168152602001610227565b34801561046c575f80fd5b506102c26112b0565b348015610480575f80fd5b5061021373833589fcd6edb6e08f4c7c32d4f71b54bda0291381565b3480156104a7575f80fd5b505f54610213906001600160a01b031681565b3480156104c5575f80fd5b506104d96104d4366004611aab565b6113a6565b6040516001600160401b039091168152602001610227565b3480156104fc575f80fd5b506102c261050b366004611d05565b611402565b6102c261051e366004611aab565b611614565b34801561052e575f80fd5b506102c261053d366004611aab565b6117f1565b34801561054d575f80fd5b506104d96301e1338081565b348015610564575f80fd5b506102c2610573366004611d25565b611904565b5f8181526003602052604081205482906001600160a01b03166105ae576040516337f9b70b60e11b815260040160405180910390fd5b5f838152600360205260409020546001600160a01b031691505b50919050565b60036020525f90815260409020805460018201546002830180546001600160a01b039384169493831693600160a01b84046001600160401b031693600160e01b900460ff1692909161061f90611d45565b80601f016020809104026020016040519081016040528092919081815260200182805461064b90611d45565b80156106965780601f1061066d57610100808354040283529160200191610696565b820191905f5260205f20905b81548152906001019060200180831161067957829003601f168201915b5050505050908060030154908060040154905087565b5f8181526003602052604081205482906001600160a01b03166106e2576040516337f9b70b60e11b815260040160405180910390fd5b50505f9081526003602052604090206004015490565b5f546001600160a01b03163314610722576040516330cd747160e01b815260040160405180910390fd5b60045460ff161561074657604051631785c68160e01b815260040160405180910390fd5b60055415610767576040516376746e0960e01b815260040160405180910390fd5b4260058190557f9be0f852eebe16d2dfd0a8401f4b7a35086ca10952f979f8ed829a541594e9589061079c6201518082611d8b565b6040805192835260208301919091520160405180910390a1565b5f546001600160a01b031633146107e0576040516330cd747160e01b815260040160405180910390fd5b6005545f0361080257604051631d3eb3dd60e21b815260040160405180910390fd5b5f60058190556040517fa05f4da9e9b7f469e51a67c9ffb79b8a1845ae424bc09d607b3805ca9cefaad29190a1565b5f546001600160a01b0316331461085b576040516330cd747160e01b815260040160405180910390fd5b60045460ff1661087e57604051636cd6020160e01b815260040160405180910390fd5b6004805460ff191690556040515f81527f40db37ff5c0bdc2c427fbb2078c8f24afea940abac0e3c23bb4ea3bf2da2b2129060200160405180910390a15f600555565b60045460ff16156108e5576040516313d0ff5960e31b815260040160405180910390fd5b5f8381526003602052604090205483906001600160a01b031661091b576040516337f9b70b60e11b815260040160405180910390fd5b5f84815260036020526040902080546001600160a01b031633146109525760405163ea8e4eb560e01b815260040160405180910390fd5b6001810154600160e01b900460ff1661097e5760405163e72b39f960e01b815260040160405180910390fd5b6001810154600160a01b90046001600160401b031642106109b25760405163154eb81560e21b815260040160405180910390fd5b5f8390036109d357604051635c1cf85760e11b815260040160405180910390fd5b600281016109e2848683611e04565b50847f459157ba24c7ab9878b165ef465fa6ae2ab42bcd8445f576be378768b0c473098585604051610a15929190611ee5565b60405180910390a25050505050565b6040805160e0810182525f808252602082018190529181018290526060808201839052608082015260a0810182905260c08101919091525f8281526003602052604090205482906001600160a01b0316610a91576040516337f9b70b60e11b815260040160405180910390fd5b5f83815260036020908152604091829020825160e08101845281546001600160a01b039081168252600183015490811693820193909352600160a01b83046001600160401b031693810193909352600160e01b90910460ff1615156060830152600281018054608084019190610b0690611d45565b80601f0160208091040260200160405190810160405280929190818152602001828054610b3290611d45565b8015610b7d5780601f10610b5457610100808354040283529160200191610b7d565b820191905f5260205f20905b815481529060010190602001808311610b6057829003601f168201915b5050505050815260200160038201548152602001600482015481525050915050919050565b5f8181526003602052604081205482906001600160a01b0316610bd8576040516337f9b70b60e11b815260040160405180910390fd5b50505f908152600360205260409020600101546001600160a01b031690565b60045460ff1615610c1b576040516313d0ff5960e31b815260040160405180910390fd5b5f8281526003602052604090205482906001600160a01b0316610c51576040516337f9b70b60e11b815260040160405180910390fd5b5f83815260036020526040902080546001600160a01b03163314610c885760405163ea8e4eb560e01b815260040160405180910390fd5b6001810154600160e01b900460ff16610cb45760405163e72b39f960e01b815260040160405180910390fd5b6001810154600160a01b90046001600160401b03164210610ce85760405163154eb81560e21b815260040160405180910390fd5b60018101546001600160401b03600160a01b909104811690841611610d2057604051631e7eabed60e01b815260040160405180910390fd5b610d2e6301e1338042611f00565b6001600160401b0316836001600160401b03161115610d6057604051634a94fa8360e11b815260040160405180910390fd5b60018101805467ffffffffffffffff60a01b198116600160a01b6001600160401b038716908102918217909355604051631800f14960e01b815260048101939093526001600160a01b0391821691161790631800f149906024015f604051808303815f87803b158015610dd1575f80fd5b505af1158015610de3573d5f803e3d5ffd5b50506040516001600160401b03861681528692507f19064c0e7b0a75a5592828314af753fc6b060204d857ace99c07f71b866e10fa915060200160405180910390a250505050565b5f546001600160a01b03163314610e55576040516330cd747160e01b815260040160405180910390fd5b60045460ff1615610e785760405162a2ea0360e31b815260040160405180910390fd5b60055415610e995760405163cccba78f60e01b815260040160405180910390fd5b5f600581905580546040516001600160a01b03909116907f8be0079c531659141344cd1fd0a4f28419497f9722a3daafe3b4186f6b6457e0908390a35f80546001600160a01b0319169055565b6004545f9060ff1615610f0c576040516313d0ff5960e31b815260040160405180910390fd5b6001600160a01b038516610f3357604051631f05a2bf60e11b815260040160405180910390fd5b6001600160a01b0385163314610f5c5760405163ea8e4eb560e01b815260040160405180910390fd5b42846001600160401b031611610f8557604051631e7eabed60e01b815260040160405180910390fd5b610f936301e1338042611f00565b6001600160401b0316846001600160401b03161115610fc557604051634a94fa8360e11b815260040160405180910390fd5b5f829003610fe657604051635c1cf85760e11b815260040160405180910390fd5b5f30868673833589fcd6edb6e08f4c7c32d4f71b54bda0291360405161100b90611a9e565b6001600160a01b03948516815292841660208401526001600160401b039091166040830152919091166060820152608001604051809103905ff080158015611055573d5f803e3d5ffd5b50905060025f815461106690611f27565b91905081905591506040518060e00160405280876001600160a01b03168152602001826001600160a01b03168152602001866001600160401b0316815260200160011515815260200185858080601f0160208091040260200160405190810160405280939291908181526020018383808284375f920182905250938552505050602080830182905260409283018290528582526003815290829020835181546001600160a01b039182166001600160a01b0319909116178255918401516001820180549486015160608701511515600160e01b0260ff60e01b196001600160401b03909216600160a01b026001600160e01b03199097169390951692909217949094171691909117909155608082015160028201906111859082611f3f565b5060a0820151816003015560c08201518160040155905050806001600160a01b0316866001600160a01b0316837f06bd4928b6eb1c5aff14ea20cde64f51919c160c7f21d44750f144374df6b5bd8888886040516111e593929190611ffa565b60405180910390a450949350505050565b5f8181526003602052604081205482906001600160a01b031661122c576040516337f9b70b60e11b815260040160405180910390fd5b50505f908152600360208190526040909120015490565b5f81815260036020526040812080546001600160a01b031661126757505f92915050565b6001810154600160e01b900460ff166112835750600292915050565b6001810154600160a01b90046001600160401b031642106112a75750600392915050565b50600192915050565b5f546001600160a01b031633146112da576040516330cd747160e01b815260040160405180910390fd5b60045460ff16156112fe57604051631785c68160e01b815260040160405180910390fd5b6005545f0361132057604051631d3eb3dd60e21b815260040160405180910390fd5b5f620151806005546113329190611d8b565b90508042101561135c57604051630596456160e51b81526004810182905260240160405180910390fd5b6004805460ff191660019081179091556040519081527f40db37ff5c0bdc2c427fbb2078c8f24afea940abac0e3c23bb4ea3bf2da2b2129060200160405180910390a1505f600555565b5f8181526003602052604081205482906001600160a01b03166113dc576040516337f9b70b60e11b815260040160405180910390fd5b50505f90815260036020526040902060010154600160a01b90046001600160401b031690565b60045460ff1615611426576040516313d0ff5960e31b815260040160405180910390fd5b6002600154036114495760405163558a1e0360e11b815260040160405180910390fd5b60026001555f8281526003602052604090205482906001600160a01b0316611484576040516337f9b70b60e11b815260040160405180910390fd5b5f8381526003602052604090206001810154600160e01b900460ff166114bd5760405163e72b39f960e01b815260040160405180910390fd5b6001810154600160a01b90046001600160401b031642106114f15760405163154eb81560e21b815260040160405180910390fd5b825f0361151157604051637bc90c0560e11b815260040160405180910390fd5b82816004015f8282546115249190611d8b565b909155505060405183815273833589fcd6edb6e08f4c7c32d4f71b54bda0291390339086907fc60b8f95450220c55a4c1b2bbc5e5a142fd9b2065c987fb76f0aa9b27f4cf4d79060200160405180910390a460018101546115a69073833589fcd6edb6e08f4c7c32d4f71b54bda029139033906001600160a01b0316866119ae565b806001015f9054906101000a90046001600160a01b03166001600160a01b0316637aad73446040518163ffffffff1660e01b81526004015f604051808303815f87803b1580156115f4575f80fd5b505af1158015611606573d5f803e3d5ffd5b505060018055505050505050565b60045460ff1615611638576040516313d0ff5960e31b815260040160405180910390fd5b60026001540361165b5760405163558a1e0360e11b815260040160405180910390fd5b60026001555f8181526003602052604090205481906001600160a01b0316611696576040516337f9b70b60e11b815260040160405180910390fd5b5f8281526003602052604090206001810154600160e01b900460ff166116cf5760405163e72b39f960e01b815260040160405180910390fd5b6001810154600160a01b90046001600160401b031642106117035760405163154eb81560e21b815260040160405180910390fd5b345f036117235760405163f2365b5b60e01b815260040160405180910390fd5b34816003015f8282546117369190611d8b565b90915550506040513481525f90339085907fc60b8f95450220c55a4c1b2bbc5e5a142fd9b2065c987fb76f0aa9b27f4cf4d79060200160405180910390a460018101546040515f916001600160a01b03169034908381818185875af1925050503d805f81146117c0576040519150601f19603f3d011682016040523d82523d5f602084013e6117c5565b606091505b50509050806117e75760405163673fe16560e01b815260040160405180910390fd5b5050600180555050565b60045460ff1615611815576040516313d0ff5960e31b815260040160405180910390fd5b5f8181526003602052604090205481906001600160a01b031661184b576040516337f9b70b60e11b815260040160405180910390fd5b5f82815260036020526040902080546001600160a01b0316331480159061187c57505f546001600160a01b03163314155b1561189a5760405163ea8e4eb560e01b815260040160405180910390fd5b6001810154600160e01b900460ff166118c65760405163e72b39f960e01b815260040160405180910390fd5b60018101805460ff60e01b1916905560405183907f5e6eb33a418de5dbbc17f989f7ae362cdfbb1748c5d603137c767027a354edbc905f90a2505050565b5f546001600160a01b0316331461192e576040516330cd747160e01b815260040160405180910390fd5b6001600160a01b03811661195557604051631f05a2bf60e11b815260040160405180910390fd5b5f80546040516001600160a01b03808516939216917f8be0079c531659141344cd1fd0a4f28419497f9722a3daafe3b4186f6b6457e091a35f80546001600160a01b0319166001600160a01b0392909216919091179055565b604080516001600160a01b0385811660248301528481166044830152606480830185905283518084039091018152608490920183526020820180516001600160e01b03166323b872dd60e01b17905291515f92839290881691611a119190612025565b5f604051808303815f865af19150503d805f8114611a4a576040519150601f19603f3d011682016040523d82523d5f602084013e611a4f565b606091505b5091509150818015611a79575080511580611a79575080806020019051810190611a79919061203b565b611a965760405163b9aae98960e01b815260040160405180910390fd5b505050505050565b610b5f8061205b83390190565b5f60208284031215611abb575f80fd5b5035919050565b5f81518084528060208401602086015e5f602082860101526020601f19601f83011685010191505092915050565b6001600160a01b038881168252871660208201526001600160401b0386166040820152841515606082015260e0608082018190525f90611b3290830186611ac2565b60a08301949094525060c0015295945050505050565b5f8083601f840112611b58575f80fd5b5081356001600160401b03811115611b6e575f80fd5b602083019150836020828501011115611b85575f80fd5b9250929050565b5f805f60408486031215611b9e575f80fd5b8335925060208401356001600160401b03811115611bba575f80fd5b611bc686828701611b48565b9497909650939450505050565b602081525f60018060a01b03808451166020840152806020850151166040840152506001600160401b036040840151166060830152606083015115156080830152608083015160e060a0840152611c2e610100840182611ac2565b905060a084015160c084015260c084015160e08401528091505092915050565b80356001600160401b0381168114611c64575f80fd5b919050565b5f8060408385031215611c7a575f80fd5b82359150611c8a60208401611c4e565b90509250929050565b80356001600160a01b0381168114611c64575f80fd5b5f805f8060608587031215611cbc575f80fd5b611cc585611c93565b9350611cd360208601611c4e565b925060408501356001600160401b03811115611ced575f80fd5b611cf987828801611b48565b95989497509550505050565b5f8060408385031215611d16575f80fd5b50508035926020909101359150565b5f60208284031215611d35575f80fd5b611d3e82611c93565b9392505050565b600181811c90821680611d5957607f821691505b6020821081036105c857634e487b7160e01b5f52602260045260245ffd5b634e487b7160e01b5f52601160045260245ffd5b80820180821115611d9e57611d9e611d77565b92915050565b634e487b7160e01b5f52604160045260245ffd5b601f821115611dff57805f5260205f20601f840160051c81016020851015611ddd5750805b601f840160051c820191505b81811015611dfc575f8155600101611de9565b50505b505050565b6001600160401b03831115611e1b57611e1b611da4565b611e2f83611e298354611d45565b83611db8565b5f601f841160018114611e60575f8515611e495750838201355b5f19600387901b1c1916600186901b178355611dfc565b5f83815260208120601f198716915b82811015611e8f5786850135825560209485019460019092019101611e6f565b5086821015611eab575f1960f88860031b161c19848701351681555b505060018560011b0183555050505050565b81835281816020850137505f828201602090810191909152601f909101601f19169091010190565b602081525f611ef8602083018486611ebd565b949350505050565b6001600160401b03818116838216019080821115611f2057611f20611d77565b5092915050565b5f60018201611f3857611f38611d77565b5060010190565b81516001600160401b03811115611f5857611f58611da4565b611f6c81611f668454611d45565b84611db8565b602080601f831160018114611f9f575f8415611f885750858301515b5f19600386901b1c1916600185901b178555611a96565b5f85815260208120601f198616915b82811015611fcd57888601518255948401946001909101908401611fae565b5085821015611fea57878501515f19600388901b60f8161c191681555b5050505050600190811b01905550565b6001600160401b0384168152604060208201525f61201c604083018486611ebd565b95945050505050565b5f82518060208501845e5f920191825250919050565b5f6020828403121561204b575f80fd5b81518015158114611d3e575f80fdfe60e060405234801561000f575f80fd5b50604051610b5f380380610b5f83398101604081905261002e916100fa565b6001600160a01b038416610055576040516338bbe93360e01b815260040160405180910390fd5b6001600160a01b03831661007c57604051631f05a2bf60e11b815260040160405180910390fd5b6001600160a01b0381166100a35760405163bd6e53ad60e01b815260040160405180910390fd5b6001600160a01b0393841660805291831660a0525f80546001600160401b0319166001600160401b03929092169190911790551660c052610159565b80516001600160a01b03811681146100f5575f80fd5b919050565b5f805f806080858703121561010d575f80fd5b610116856100df565b9350610124602086016100df565b60408601519093506001600160401b0381168114610140575f80fd5b915061014e606086016100df565b905092959194509250565b60805160a05160c0516109746101eb5f395f818161019b01528181610444015281816104ca015281816106b5015261073b01525f81816101020152818161020e015281816104ec0152818161051f0152818161059d015281816105c5015281816106340152818161075d015261078401525f8181608c01528181610255015281816102f701526103c401526109745ff3fe60806040526004361061007c575f3560e01c8063b15b592f1161004c578063b15b592f146101e9578063b17fac22146101fd578063cff0afb314610230578063f645d4f914610244575f80fd5b80631800f1491461012e5780633197cbb61461014d5780633e413bee1461018a5780637aad7344146101d5575f80fd5b3661012a57336001600160a01b037f000000000000000000000000000000000000000000000000000000000000000016146100ca5760405163183d164560e21b815260040160405180910390fd5b5f5467ffffffffffffffff1642106100f55760405163477383f360e01b815260040160405180910390fd5b6101286001600160a01b037f00000000000000000000000000000000000000000000000000000000000000001634610277565b005b5f80fd5b348015610139575f80fd5b506101286101483660046108c4565b6102ec565b348015610158575f80fd5b505f5461016c9067ffffffffffffffff1681565b60405167ffffffffffffffff90911681526020015b60405180910390f35b348015610195575f80fd5b506101bd7f000000000000000000000000000000000000000000000000000000000000000081565b6040516001600160a01b039091168152602001610181565b3480156101e0575f80fd5b506101286103b9565b3480156101f4575f80fd5b50610128610514565b348015610208575f80fd5b506101bd7f000000000000000000000000000000000000000000000000000000000000000081565b34801561023b575f80fd5b50610128610629565b34801561024f575f80fd5b506101bd7f000000000000000000000000000000000000000000000000000000000000000081565b5f826001600160a01b0316826040515f6040518083038185875af1925050503d805f81146102c0576040519150601f19603f3d011682016040523d82523d5f602084013e6102c5565b606091505b50509050806102e75760405163120086e360e11b815260040160405180910390fd5b505050565b336001600160a01b037f000000000000000000000000000000000000000000000000000000000000000016146103355760405163183d164560e21b815260040160405180910390fd5b5f5467ffffffffffffffff90811690821611610364576040516301b08a5d60e21b815260040160405180910390fd5b5f805467ffffffffffffffff191667ffffffffffffffff83169081179091556040519081527fe394c6102e909b35d2f82dbcc4691a2435c252b0a9a710387331ade725807ab99060200160405180910390a150565b336001600160a01b037f000000000000000000000000000000000000000000000000000000000000000016146104025760405163183d164560e21b815260040160405180910390fd5b5f5467ffffffffffffffff16421061042d5760405163477383f360e01b815260040160405180910390fd5b6040516370a0823160e01b81523060048201525f907f00000000000000000000000000000000000000000000000000000000000000006001600160a01b0316906370a0823190602401602060405180830381865afa158015610491573d5f803e3d5ffd5b505050506040513d601f19601f820116820180604052508101906104b591906108f2565b90508015610511576105116001600160a01b037f0000000000000000000000000000000000000000000000000000000000000000167f0000000000000000000000000000000000000000000000000000000000000000836107dd565b50565b336001600160a01b037f0000000000000000000000000000000000000000000000000000000000000000161461055d57604051632552cded60e11b815260040160405180910390fd5b5f5467ffffffffffffffff1642101561058957604051631a6031a360e31b815260040160405180910390fd5b478015610511576105c36001600160a01b037f00000000000000000000000000000000000000000000000000000000000000001682610277565b7f00000000000000000000000000000000000000000000000000000000000000006001600160a01b03167f4abde9448551dd0f804bf92de5a15dd629946b90dda555c79914e5d12537755b8260405161061e91815260200190565b60405180910390a250565b336001600160a01b037f0000000000000000000000000000000000000000000000000000000000000000161461067257604051632552cded60e11b815260040160405180910390fd5b5f5467ffffffffffffffff1642101561069e57604051631a6031a360e31b815260040160405180910390fd5b6040516370a0823160e01b81523060048201525f907f00000000000000000000000000000000000000000000000000000000000000006001600160a01b0316906370a0823190602401602060405180830381865afa158015610702573d5f803e3d5ffd5b505050506040513d601f19601f8201168201806040525081019061072691906108f2565b90508015610511576107826001600160a01b037f0000000000000000000000000000000000000000000000000000000000000000167f0000000000000000000000000000000000000000000000000000000000000000836107dd565b7f00000000000000000000000000000000000000000000000000000000000000006001600160a01b03167ff4951b5270d22caeb46ffeb0677ec357e544b9aa9001c2e52145295a6385faa98260405161061e91815260200190565b604080516001600160a01b038481166024830152604480830185905283518084039091018152606490920183526020820180516001600160e01b031663a9059cbb60e01b17905291515f928392908716916108389190610909565b5f604051808303815f865af19150503d805f8114610871576040519150601f19603f3d011682016040523d82523d5f602084013e610876565b606091505b50915091508180156108a05750805115806108a05750808060200190518101906108a0919061091f565b6108bd5760405163116cdb0360e31b815260040160405180910390fd5b5050505050565b5f602082840312156108d4575f80fd5b813567ffffffffffffffff811681146108eb575f80fd5b9392505050565b5f60208284031215610902575f80fd5b5051919050565b5f82518060208501845e5f920191825250919050565b5f6020828403121561092f575f80fd5b815180151581146108eb575f80fdfea264697066735822122078e6618edc3b9fd5182a3e0d3be1ec9cbfce0d1a775c11cb365c935e39685e7964736f6c63430008190033a26469706673582212200fcfbb8a04f00fdc2b24531a8874baee9258bc00daf7337f36c3b54d0ef8fae664736f6c63430008190033","linkReferences":{}},"methodIdentifiers":{"MAX_DURATION()":"b1724b46","PAUSE_DELAY()":"20677f34","USDC()":"89a30271","campaignCount()":"7274e30d","campaignEndTime(uint256)":"97db5dfc","campaignOwner(uint256)":"110b8777","campaignStatus(uint256)":"8129d46e","campaignVault(uint256)":"599105ca","campaigns(uint256)":"141961bc","cancelPauseRequest()":"342aea99","closeCampaign(uint256)":"b0e1c1e1","createCampaign(address,uint64,string)":"7447b927","donateETH(uint256)":"ab83f98a","donateUSDC(uint256,uint256)":"a5a14398","extendCampaign(uint256,uint64)":"6702edd4","getCampaign(uint256)":"5598f8cc","owner()":"8da5cb5b","pause()":"8456cb59","pauseRequestedAt()":"4ee670b8","paused()":"5c975abb","raisedETH(uint256)":"7d14a857","raisedUSDC(uint256)":"1646ec19","renounceOwnership()":"715018a6","requestPause()":"1e935ab1","transferOwnership(address)":"f2fde38b","unpause()":"3f4ba83a","updateMetadata(uint256,string)":"53c8388e","usdcAddress()":"02d45457"},"id":17}