{"abi":[{"type":"constructor","inputs":[{"name":"_forwarder","type":"address","internalType":"address"},{"name":"_campaignOwner","type":"address","internalType":"address"},{"name":"_endTime","type":"uint64","internalType":"uint64"},{"name":"_usdc","type":"address","internalType":"address"}],"stateMutability":"nonpayable"},{"type":"receive","stateMutability":"payable"},{"type":"function","name":"campaignOwner","inputs":[],"outputs":[{"name":"","type":"address","internalType":"address"}],"stateMutability":"view"},{"type":"function","name":"endTime","inputs":[],"outputs":[{"name":"","type":"uint64","internalType":"uint64"}],"stateMutability":"view"},{"type":"function","name":"flushUSDC","inputs":[],"outputs":[],"stateMutability":"nonpayable"},{"type":"function","name":"forwarder","inputs":[],"outputs":[{"name":"","type":"address","internalType":"address"}],"stateMutability":"view"},{"type":"function","name":"sweepForcedETH","inputs":[],"outputs":[],"stateMutability":"nonpayable"},{"type":"function","name":"sweepStuckUSDC","inputs":[],"outputs":[],"stateMutability":"nonpayable"},{"type":"function","name":"updateEndTime","inputs":[{"name":"newEndTime","type":"uint64","internalType":"uint64"}],"outputs":[],"stateMutability":"nonpayable"},{"type":"function","name":"usdc","inputs":[],"outputs":[{"name":"","type":"address","internalType":"contract IERC20"}],"stateMutability":"view"},{"type":"event","name":"EndTimeUpdated","inputs":[{"name":"newEndTime","type":"uint64","indexed":false,"internalType":"uint64"}],"anonymous":false},{"type":"event","name":"SweptETH","inputs":[{"name":"owner","type":"address","indexed":true,"internalType":"address"},{"name":"amount","type":"uint256","indexed":false,"internalType":"uint256"}],"anonymous":false},{"type":"event","name":"SweptUSDC","inputs":[{"name":"owner","type":"address","indexed":true,"internalType":"address"},{"name":"amount","type":"uint256","indexed":false,"internalType":"uint256"}],"anonymous":false},{"type":"error","name":"EndTimeNotExtended","inputs":[]},{"type":"error","name":"Ended","inputs":[]},{"type":"error","name":"ForwarderZero","inputs":[]},{"type":"error","name":"NotCampaignOwner","inputs":[]},{"type":"error","name":"NotEnded","inputs":[]},{"type":"error","name":"NotForwarder","inputs":[]},{"type":"error","name":"OwnerZero","inputs":[]},{"type":"error","name":"SafeERC20TransferFailed","inputs":[]},{"type":"error","name":"SendValueFailed","inputs":[]},{"type":"error","name":"UsdcZero","inputs":[]}],"bytecode":{"object":"0x60e060405234801561000f575f80fd5b50604051610b5f380380610b5f83398101604081905261002e916100fa565b6001600160a01b038416610055576040516338bbe93360e01b815260040160405180910390fd5b6001600160a01b03831661007c57604051631f05a2bf60e11b815260040160405180910390fd5b6001600160a01b0381166100a35760405163bd6e53ad60e01b815260040160405180910390fd5b6001600160a01b0393841660805291831660a0525f80546001600160401b0319166001600160401b03929092169190911790551660c052610159565b80516001600160a01b03811681146100f5575f80fd5b919050565b5f805f806080858703121561010d575f80fd5b610116856100df565b9350610124602086016100df565b60408601519093506001600160401b0381168114610140575f80fd5b915061014e606086016100df565b905092959194509250565b60805160a05160c0516109746101eb5f395f818161019b01528181610444015281816104ca015281816106b5015261073b01525f81816101020152818161020e015281816104ec0152818161051f0152818161059d015281816105c5015281816106340152818161075d015261078401525f8181608c01528181610255015281816102f701526103c401526109745ff3fe60806040526004361061007c575f3560e01c8063b15b592f1161004c578063b15b592f146101e9578063b17fac22146101fd578063cff0afb314610230578063f645d4f914610244575f80fd5b80631800f1491461012e5780633197cbb61461014d5780633e413bee1461018a5780637aad7344146101d5575f80fd5b3661012a57336001600160a01b037f000000000000000000000000000000000000000000000000000000000000000016146100ca5760405163183d164560e21b815260040160405180910390fd5b5f5467ffffffffffffffff1642106100f55760405163477383f360e01b815260040160405180910390fd5b6101286001600160a01b037f00000000000000000000000000000000000000000000000000000000000000001634610277565b005b5f80fd5b348015610139575f80fd5b506101286101483660046108c4565b6102ec565b348015610158575f80fd5b505f5461016c9067ffffffffffffffff1681565b60405167ffffffffffffffff90911681526020015b60405180910390f35b348015610195575f80fd5b506101bd7f000000000000000000000000000000000000000000000000000000000000000081565b6040516001600160a01b039091168152602001610181565b3480156101e0575f80fd5b506101286103b9565b3480156101f4575f80fd5b50610128610514565b348015610208575f80fd5b506101bd7f000000000000000000000000000000000000000000000000000000000000000081565b34801561023b575f80fd5b50610128610629565b34801561024f575f80fd5b506101bd7f000000000000000000000000000000000000000000000000000000000000000081565b5f826001600160a01b0316826040515f6040518083038185875af1925050503d805f81146102c0576040519150601f19603f3d011682016040523d82523d5f602084013e6102c5565b606091505b50509050806102e75760405163120086e360e11b815260040160405180910390fd5b505050565b336001600160a01b037f000000000000000000000000000000000000000000000000000000000000000016146103355760405163183d164560e21b815260040160405180910390fd5b5f5467ffffffffffffffff90811690821611610364576040516301b08a5d60e21b815260040160405180910390fd5b5f805467ffffffffffffffff191667ffffffffffffffff83169081179091556040519081527fe394c6102e909b35d2f82dbcc4691a2435c252b0a9a710387331ade725807ab99060200160405180910390a150565b336001600160a01b037f000000000000000000000000000000000000000000000000000000000000000016146104025760405163183d164560e21b815260040160405180910390fd5b5f5467ffffffffffffffff16421061042d5760405163477383f360e01b815260040160405180910390fd5b6040516370a0823160e01b81523060048201525f907f00000000000000000000000000000000000000000000000000000000000000006001600160a01b0316906370a0823190602401602060405180830381865afa158015610491573d5f803e3d5ffd5b505050506040513d601f19601f820116820180604052508101906104b591906108f2565b90508015610511576105116001600160a01b037f0000000000000000000000000000000000000000000000000000000000000000167f0000000000000000000000000000000000000000000000000000000000000000836107dd565b50565b336001600160a01b037f0000000000000000000000000000000000000000000000000000000000000000161461055d57604051632552cded60e11b815260040160405180910390fd5b5f5467ffffffffffffffff1642101561058957604051631a6031a360e31b815260040160405180910390fd5b478015610511576105c36001600160a01b037f00000000000000000000000000000000000000000000000000000000000000001682610277565b7f00000000000000000000000000000000000000000000000000000000000000006001600160a01b03167f4abde9448551dd0f804bf92de5a15dd629946b90dda555c79914e5d12537755b8260405161061e91815260200190565b60405180910390a250565b336001600160a01b037f0000000000000000000000000000000000000000000000000000000000000000161461067257604051632552cded60e11b815260040160405180910390fd5b5f5467ffffffffffffffff1642101561069e57604051631a6031a360e31b815260040160405180910390fd5b6040516370a0823160e01b81523060048201525f907f00000000000000000000000000000000000000000000000000000000000000006001600160a01b0316906370a0823190602401602060405180830381865afa158015610702573d5f803e3d5ffd5b505050506040513d601f19601f8201168201806040525081019061072691906108f2565b90508015610511576107826001600160a01b037f0000000000000000000000000000000000000000000000000000000000000000167f0000000000000000000000000000000000000000000000000000000000000000836107dd565b7f00000000000000000000000000000000000000000000000000000000000000006001600160a01b03167ff4951b5270d22caeb46ffeb0677ec357e544b9aa9001c2e52145295a6385faa98260405161061e91815260200190565b604080516001600160a01b038481166024830152604480830185905283518084039091018152606490920183526020820180516001600160e01b031663a9059cbb60e01b17905291515f928392908716916108389190610909565b5f604051808303815f865af19150503d805f8114610871576040519150601f19603f3d011682016040523d82523d5f602084013e610876565b606091505b50915091508180156108a05750805115806108a05750808060200190518101906108a0919061091f565b6108bd5760405163116cdb0360e31b815260040160405180910390fd5b5050505050565b5f602082840312156108d4575f80fd5b813567ffffffffffffffff811681146108eb575f80fd5b9392505050565b5f60208284031215610902575f80fd5b5051919050565b5f82518060208501845e5f920191825250919050565b5f6020828403121561092f575f80fd5b815180151581146108eb575f80fdfea264697066735822122078e6618edc3b9fd5182a3e0d3be1ec9cbfce0d1a775c11cb365c935e39685e7964736f6c63430008190033","linkReferences":{}},"methodIdentifiers":{"campaignOwner()":"b17fac22","endTime()":"3197cbb6","flushUSDC()":"7aad7344","forwarder()":"f645d4f9","sweepForcedETH()":"b15b592f","sweepStuckUSDC()":"cff0afb3","updateEndTime(uint64)":"1800f149","usdc()":"3e413bee"},"id":17}