{"abi":[{"type":"constructor","inputs":[{"name":"initialOwner","type":"address","internalType":"address"},{"name":"initialMinter","type":"address","internalType":"address"},{"name":"collectionName","type":"string","internalType":"string"},{"name":"collectionSymbol","type":"string","internalType":"string"}],"stateMutability":"nonpayable"},{"type":"function","name":"balanceOf","inputs":[{"name":"account","type":"address","internalType":"address"},{"name":"id","type":"uint256","internalType":"uint256"}],"outputs":[{"name":"","type":"uint256","internalType":"uint256"}],"stateMutability":"view"},{"type":"function","name":"balanceOfBatch","inputs":[{"name":"accounts","type":"address[]","internalType":"address[]"},{"name":"ids","type":"uint256[]","internalType":"uint256[]"}],"outputs":[{"name":"batchBalances","type":"uint256[]","internalType":"uint256[]"}],"stateMutability":"view"},{"type":"function","name":"burn","inputs":[{"name":"from","type":"address","internalType":"address"},{"name":"id","type":"uint256","internalType":"uint256"},{"name":"amount","type":"uint256","internalType":"uint256"}],"outputs":[],"stateMutability":"nonpayable"},{"type":"function","name":"burnBatch","inputs":[{"name":"from","type":"address","internalType":"address"},{"name":"ids","type":"uint256[]","internalType":"uint256[]"},{"name":"amounts","type":"uint256[]","internalType":"uint256[]"}],"outputs":[],"stateMutability":"nonpayable"},{"type":"function","name":"mint","inputs":[{"name":"to","type":"address","internalType":"address"},{"name":"id","type":"uint256","internalType":"uint256"},{"name":"amount","type":"uint256","internalType":"uint256"},{"name":"data","type":"bytes","internalType":"bytes"}],"outputs":[],"stateMutability":"nonpayable"},{"type":"function","name":"mintBatch","inputs":[{"name":"to","type":"address","internalType":"address"},{"name":"ids","type":"uint256[]","internalType":"uint256[]"},{"name":"amounts","type":"uint256[]","internalType":"uint256[]"},{"name":"data","type":"bytes","internalType":"bytes"}],"outputs":[],"stateMutability":"nonpayable"},{"type":"function","name":"minter","inputs":[],"outputs":[{"name":"","type":"address","internalType":"address"}],"stateMutability":"view"},{"type":"function","name":"name","inputs":[],"outputs":[{"name":"","type":"string","internalType":"string"}],"stateMutability":"view"},{"type":"function","name":"onePerWallet","inputs":[{"name":"","type":"uint256","internalType":"uint256"}],"outputs":[{"name":"","type":"bool","internalType":"bool"}],"stateMutability":"view"},{"type":"function","name":"owner","inputs":[],"outputs":[{"name":"","type":"address","internalType":"address"}],"stateMutability":"view"},{"type":"function","name":"safeBatchTransferFrom","inputs":[{"name":"","type":"address","internalType":"address"},{"name":"","type":"address","internalType":"address"},{"name":"","type":"uint256[]","internalType":"uint256[]"},{"name":"","type":"uint256[]","internalType":"uint256[]"},{"name":"","type":"bytes","internalType":"bytes"}],"outputs":[],"stateMutability":"pure"},{"type":"function","name":"safeTransferFrom","inputs":[{"name":"","type":"address","internalType":"address"},{"name":"","type":"address","internalType":"address"},{"name":"","type":"uint256","internalType":"uint256"},{"name":"","type":"uint256","internalType":"uint256"},{"name":"","type":"bytes","internalType":"bytes"}],"outputs":[],"stateMutability":"pure"},{"type":"function","name":"setMinter","inputs":[{"name":"newMinter","type":"address","internalType":"address"}],"outputs":[],"stateMutability":"nonpayable"},{"type":"function","name":"setOnePerWallet","inputs":[{"name":"id","type":"uint256","internalType":"uint256"},{"name":"enabled","type":"bool","internalType":"bool"}],"outputs":[],"stateMutability":"nonpayable"},{"type":"function","name":"setTokenURI","inputs":[{"name":"id","type":"uint256","internalType":"uint256"},{"name":"newURI","type":"string","internalType":"string"}],"outputs":[],"stateMutability":"nonpayable"},{"type":"function","name":"setTokenURIBatch","inputs":[{"name":"ids","type":"uint256[]","internalType":"uint256[]"},{"name":"uris_","type":"string[]","internalType":"string[]"}],"outputs":[],"stateMutability":"nonpayable"},{"type":"function","name":"soulbound","inputs":[],"outputs":[{"name":"","type":"bool","internalType":"bool"}],"stateMutability":"view"},{"type":"function","name":"supportsInterface","inputs":[{"name":"interfaceId","type":"bytes4","internalType":"bytes4"}],"outputs":[{"name":"","type":"bool","internalType":"bool"}],"stateMutability":"pure"},{"type":"function","name":"symbol","inputs":[],"outputs":[{"name":"","type":"string","internalType":"string"}],"stateMutability":"view"},{"type":"function","name":"totalSupply","inputs":[{"name":"id","type":"uint256","internalType":"uint256"}],"outputs":[{"name":"","type":"uint256","internalType":"uint256"}],"stateMutability":"view"},{"type":"function","name":"totalSupplyBatch","inputs":[{"name":"ids","type":"uint256[]","internalType":"uint256[]"}],"outputs":[{"name":"out","type":"uint256[]","internalType":"uint256[]"}],"stateMutability":"view"},{"type":"function","name":"transferOwnership","inputs":[{"name":"newOwner","type":"address","internalType":"address"}],"outputs":[],"stateMutability":"nonpayable"},{"type":"function","name":"uri","inputs":[{"name":"id","type":"uint256","internalType":"uint256"}],"outputs":[{"name":"","type":"string","internalType":"string"}],"stateMutability":"view"},{"type":"event","name":"ApprovalForAll","inputs":[{"name":"account","type":"address","indexed":true,"internalType":"address"},{"name":"operator","type":"address","indexed":true,"internalType":"address"},{"name":"approved","type":"bool","indexed":false,"internalType":"bool"}],"anonymous":false},{"type":"event","name":"MinterUpdated","inputs":[{"name":"previousMinter","type":"address","indexed":true,"internalType":"address"},{"name":"newMinter","type":"address","indexed":true,"internalType":"address"}],"anonymous":false},{"type":"event","name":"OnePerWalletSet","inputs":[{"name":"id","type":"uint256","indexed":true,"internalType":"uint256"},{"name":"enabled","type":"bool","indexed":false,"internalType":"bool"}],"anonymous":false},{"type":"event","name":"OwnershipTransferred","inputs":[{"name":"previousOwner","type":"address","indexed":true,"internalType":"address"},{"name":"newOwner","type":"address","indexed":true,"internalType":"address"}],"anonymous":false},{"type":"event","name":"TransferBatch","inputs":[{"name":"operator","type":"address","indexed":true,"internalType":"address"},{"name":"from","type":"address","indexed":true,"internalType":"address"},{"name":"to","type":"address","indexed":true,"internalType":"address"},{"name":"ids","type":"uint256[]","indexed":false,"internalType":"uint256[]"},{"name":"values","type":"uint256[]","indexed":false,"internalType":"uint256[]"}],"anonymous":false},{"type":"event","name":"TransferSingle","inputs":[{"name":"operator","type":"address","indexed":true,"internalType":"address"},{"name":"from","type":"address","indexed":true,"internalType":"address"},{"name":"to","type":"address","indexed":true,"internalType":"address"},{"name":"id","type":"uint256","indexed":false,"internalType":"uint256"},{"name":"value","type":"uint256","indexed":false,"internalType":"uint256"}],"anonymous":false},{"type":"event","name":"URI","inputs":[{"name":"value","type":"string","indexed":false,"internalType":"string"},{"name":"id","type":"uint256","indexed":true,"internalType":"uint256"}],"anonymous":false},{"type":"error","name":"BadgeInsufficientBalance","inputs":[]},{"type":"error","name":"BadgeLengthMismatch","inputs":[]},{"type":"error","name":"BadgeMaxOnePerWallet","inputs":[]},{"type":"error","name":"BadgeMinterZero","inputs":[]},{"type":"error","name":"BadgeMustMintExactlyOne","inputs":[]},{"type":"error","name":"BadgeNotApproved","inputs":[]},{"type":"error","name":"BadgeNotMinter","inputs":[]},{"type":"error","name":"BadgeNotOwner","inputs":[]},{"type":"error","name":"BadgeOwnerZero","inputs":[]},{"type":"error","name":"BadgeSoulbound","inputs":[]},{"type":"error","name":"BadgeUnsafeRecipient","inputs":[]},{"type":"error","name":"BadgeUriAlreadySet","inputs":[]},{"type":"error","name":"BadgeUriEmpty","inputs":[]},{"type":"error","name":"BadgeUriNotSet","inputs":[]},{"type":"error","name":"BadgeZeroAddress","inputs":[]},{"type":"error","name":"BadgeZeroAmount","inputs":[]}],"bytecode":{"object":"0x608060405234801561000f575f80fd5b5060405161213238038061213283398101604081905261002e916101ef565b6001600160a01b0384166100555760405163221159a160e21b815260040160405180910390fd5b6001600160a01b03831661007c57604051636b6c84ad60e01b815260040160405180910390fd5b600280546001600160a01b038087166001600160a01b03199283161790925560038054928616929091169190911790555f6100b783826102f3565b5060016100c482826102f3565b506040516001600160a01b038516905f907f8be0079c531659141344cd1fd0a4f28419497f9722a3daafe3b4186f6b6457e0908290a36040516001600160a01b038416905f907f1cf2de25c5bf439ac0287061c3a0fa69b3b02867d0ccfd2ded34e42577050b73908290a3505050506103b2565b80516001600160a01b038116811461014e575f80fd5b919050565b634e487b7160e01b5f52604160045260245ffd5b5f82601f830112610176575f80fd5b81516001600160401b038082111561019057610190610153565b604051601f8301601f19908116603f011681019082821181831017156101b8576101b8610153565b816040528381528660208588010111156101d0575f80fd5b8360208701602083015e5f602085830101528094505050505092915050565b5f805f8060808587031215610202575f80fd5b61020b85610138565b935061021960208601610138565b60408601519093506001600160401b0380821115610235575f80fd5b61024188838901610167565b93506060870151915080821115610256575f80fd5b5061026387828801610167565b91505092959194509250565b600181811c9082168061028357607f821691505b6020821081036102a157634e487b7160e01b5f52602260045260245ffd5b50919050565b601f8211156102ee57805f5260205f20601f840160051c810160208510156102cc5750805b601f840160051c820191505b818110156102eb575f81556001016102d8565b50505b505050565b81516001600160401b0381111561030c5761030c610153565b6103208161031a845461026f565b846102a7565b602080601f831160018114610353575f841561033c5750858301515b5f19600386901b1c1916600185901b1785556103aa565b5f85815260208120601f198616915b8281101561038157888601518255948401946001909101908401610362565b508582101561039e57878501515f19600388901b60f8161c191681555b505060018460011b0185555b505050505050565b611d73806103bf5f395ff3fe608060405234801561000f575f80fd5b5060043610610147575f3560e01c80634e1273f4116100bf578063a19e34d511610079578063a19e34d5146102d3578063bd85b039146102e6578063f242432a14610305578063f2fde38b14610313578063f5298aca14610326578063fca3b5aa14610339575f80fd5b80634e1273f41461025f5780636b20c4541461027f578063731133e91461029257806377954ac2146102a55780638da5cb5b146102b857806395d89b41146102cb575f80fd5b80630fad0f51116101105780630fad0f51146101e7578063162094c4146101ef5780631f7fdffa146102045780632eb2c2d61461021757806334a6123c1461022a5780634bb993511461024c575f80fd5b8062fdd58e1461014b57806301ffc9a71461017157806306fdde031461019457806307546172146101a95780630e89341c146101d4575b5f80fd5b61015e6101593660046114af565b61034c565b6040519081526020015b60405180910390f35b61018461017f3660046114ef565b61039b565b6040519015158152602001610168565b61019c6103ec565b6040516101689190611511565b6003546101bc906001600160a01b031681565b6040516001600160a01b039091168152602001610168565b61019c6101e2366004611546565b610477565b610184600181565b6102026101fd3660046115a1565b610516565b005b610202610212366004611628565b6105f2565b6102026102253660046116ca565b610878565b610184610238366004611546565b60076020525f908152604090205460ff1681565b61020261025a36600461177c565b610891565b61027261026d36600461177c565b610a22565b60405161016891906117e2565b61020261028d366004611825565b610b50565b6102026102a036600461189f565b610d0b565b6102726102b33660046118f0565b610ea7565b6002546101bc906001600160a01b031681565b61019c610f4d565b6102026102e136600461192e565b610f5a565b61015e6102f4366004611546565b5f9081526006602052604090205490565b610202610225366004611960565b6102026103213660046119d2565b610fdb565b6102026103343660046119eb565b611088565b6102026103473660046119d2565b6111b1565b5f6001600160a01b038316610373576040516281837f60e11b815260040160405180910390fd5b506001600160a01b03919091165f908152600560209081526040808320938352929052205490565b5f6301ffc9a760e01b6001600160e01b0319831614806103cb5750636cdb3d1360e11b6001600160e01b03198316145b806103e657506303a24d0760e21b6001600160e01b03198316145b92915050565b5f80546103f890611a1b565b80601f016020809104026020016040519081016040528092919081815260200182805461042490611a1b565b801561046f5780601f106104465761010080835404028352916020019161046f565b820191905f5260205f20905b81548152906001019060200180831161045257829003601f168201915b505050505081565b5f81815260046020526040902080546060919061049390611a1b565b80601f01602080910402602001604051908101604052809291908181526020018280546104bf90611a1b565b801561050a5780601f106104e15761010080835404028352916020019161050a565b820191905f5260205f20905b8154815290600101906020018083116104ed57829003601f168201915b50505050509050919050565b6002546001600160a01b031633146105415760405163b9a7bb5360e01b815260040160405180910390fd5b5f8190036105625760405163b03cfc5560e01b815260040160405180910390fd5b5f838152600460205260409020805461057a90611a1b565b15905061059a57604051631e3eb80f60e01b815260040160405180910390fd5b5f8381526004602052604090206105b2828483611ab0565b50827f6bb7ff708619ba0610cba295a58592e0451dee2622938c8755667688daf3529b83836040516105e5929190611b91565b60405180910390a2505050565b6003546001600160a01b0316331461061c57604051627f149f60e21b815260040160405180910390fd5b6001600160a01b038716610642576040516281837f60e11b815260040160405180910390fd5b848314610662576040516375462fb360e11b815260040160405180910390fd5b5f5b85811015610802575f87878381811061067f5761067f611bac565b90506020020135905060045f8281526020019081526020015f2080546106a490611a1b565b90505f036106c4576040516291952160e21b815260040160405180910390fd5b5f8686848181106106d7576106d7611bac565b905060200201359050805f0361070057604051638e773efb60e01b815260040160405180910390fd5b5f8281526007602052604090205460ff1615610778576001600160a01b038a165f90815260056020908152604080832085845290915290205415610757576040516301b11ddf60e61b815260040160405180910390fd5b8060011461077857604051633b0d0b6d60e21b815260040160405180910390fd5b6001600160a01b038a165f90815260056020526040812082918b8b878181106107a3576107a3611bac565b9050602002013581526020019081526020015f205f82825401925050819055508060065f8b8b878181106107d9576107d9611bac565b602090810292909201358352508101919091526040015f20805490910190555050600101610664565b50866001600160a01b03165f6001600160a01b0316336001600160a01b03167f4a39dc06d4c0dbc64b70af90fd698a233a518aa5d07e595d983b8c0526c8f7fb898989896040516108569493929190611bf0565b60405180910390a461086f335f8989898989898961125e565b50505050505050565b604051632bc966dd60e21b815260040160405180910390fd5b6002546001600160a01b031633146108bc5760405163b9a7bb5360e01b815260040160405180910390fd5b8281146108dc576040516375462fb360e11b815260040160405180910390fd5b5f5b83811015610a1b57365f8484848181106108fa576108fa611bac565b905060200281019061090c9190611c21565b90925090505f8190036109325760405163b03cfc5560e01b815260040160405180910390fd5b60045f88888681811061094757610947611bac565b9050602002013581526020019081526020015f20805461096690611a1b565b15905061098657604051631e3eb80f60e01b815260040160405180910390fd5b818160045f8a8a8881811061099d5761099d611bac565b9050602002013581526020019081526020015f2091826109be929190611ab0565b508686848181106109d1576109d1611bac565b905060200201357f6bb7ff708619ba0610cba295a58592e0451dee2622938c8755667688daf3529b8383604051610a09929190611b91565b60405180910390a250506001016108de565b5050505050565b6060838214610a44576040516375462fb360e11b815260040160405180910390fd5b836001600160401b03811115610a5c57610a5c611a53565b604051908082528060200260200182016040528015610a85578160200160208202803683370190505b5090505f5b84811015610b47575f868683818110610aa557610aa5611bac565b9050602002016020810190610aba91906119d2565b90506001600160a01b038116610ae2576040516281837f60e11b815260040160405180910390fd5b6001600160a01b0381165f90815260056020526040812090868685818110610b0c57610b0c611bac565b9050602002013581526020019081526020015f2054838381518110610b3357610b33611bac565b602090810291909101015250600101610a8a565b50949350505050565b6001600160a01b038516610b76576040516281837f60e11b815260040160405180910390fd5b828114610b96576040516375462fb360e11b815260040160405180910390fd5b6001600160a01b0385163314610bbf57604051634302e63160e01b815260040160405180910390fd5b5f5b83811015610ca8575f858583818110610bdc57610bdc611bac565b9050602002013590505f848484818110610bf857610bf8611bac565b905060200201359050805f03610c2157604051638e773efb60e01b815260040160405180910390fd5b6001600160a01b0388165f90815260056020908152604080832085845290915290205481811015610c6557604051633703c79160e11b815260040160405180910390fd5b6001600160a01b0389165f908152600560209081526040808320958352948152848220928490039092556006909152919091208054919091039055600101610bc1565b505f6001600160a01b0316856001600160a01b0316336001600160a01b03167f4a39dc06d4c0dbc64b70af90fd698a233a518aa5d07e595d983b8c0526c8f7fb87878787604051610cfc9493929190611bf0565b60405180910390a45050505050565b6003546001600160a01b03163314610d3557604051627f149f60e21b815260040160405180910390fd5b5f8481526004602052604090208054610d4d90611a1b565b90505f03610d6d576040516291952160e21b815260040160405180910390fd5b6001600160a01b038516610d93576040516281837f60e11b815260040160405180910390fd5b825f03610db357604051638e773efb60e01b815260040160405180910390fd5b5f8481526007602052604090205460ff1615610e2b576001600160a01b0385165f90815260056020908152604080832087845290915290205415610e0a576040516301b11ddf60e61b815260040160405180910390fd5b82600114610e2b57604051633b0d0b6d60e21b815260040160405180910390fd5b6001600160a01b0385165f818152600560209081526040808320888452825280832080548801905560068252808320805488019055805188815291820187905233917fc3d58168c5ae7397731d063d5bbf3d657854427343f4c083240f7aacaa2d0f62910160405180910390a4610a1b335f8787878787611382565b6060816001600160401b03811115610ec157610ec1611a53565b604051908082528060200260200182016040528015610eea578160200160208202803683370190505b5090505f5b82811015610f465760065f858584818110610f0c57610f0c611bac565b9050602002013581526020019081526020015f2054828281518110610f3357610f33611bac565b6020908102919091010152600101610eef565b5092915050565b600180546103f890611a1b565b6002546001600160a01b03163314610f855760405163b9a7bb5360e01b815260040160405180910390fd5b5f82815260076020908152604091829020805460ff1916841515908117909155915191825283917fe4666e60a73ee8fd86e4ed3e716a16fc955016d566be286907415c70ebf71b6f910160405180910390a25050565b6002546001600160a01b031633146110065760405163b9a7bb5360e01b815260040160405180910390fd5b6001600160a01b03811661102d5760405163221159a160e21b815260040160405180910390fd5b6002546040516001600160a01b038084169216907f8be0079c531659141344cd1fd0a4f28419497f9722a3daafe3b4186f6b6457e0905f90a3600280546001600160a01b0319166001600160a01b0392909216919091179055565b6001600160a01b0383166110ae576040516281837f60e11b815260040160405180910390fd5b805f036110ce57604051638e773efb60e01b815260040160405180910390fd5b6001600160a01b03831633146110f757604051634302e63160e01b815260040160405180910390fd5b6001600160a01b0383165f9081526005602090815260408083208584529091529020548181101561113b57604051633703c79160e11b815260040160405180910390fd5b6001600160a01b0384165f818152600560209081526040808320878452825280832086860390556006825280832080548790039055805187815291820186905291929133917fc3d58168c5ae7397731d063d5bbf3d657854427343f4c083240f7aacaa2d0f62910160405180910390a450505050565b6002546001600160a01b031633146111dc5760405163b9a7bb5360e01b815260040160405180910390fd5b6001600160a01b03811661120357604051636b6c84ad60e01b815260040160405180910390fd5b6003546040516001600160a01b038084169216907f1cf2de25c5bf439ac0287061c3a0fa69b3b02867d0ccfd2ded34e42577050b73905f90a3600380546001600160a01b0319166001600160a01b0392909216919091179055565b6001600160a01b0387163b15611377575f80886001600160a01b031663bc197c818c8c8b8b8b8b8b8b60405160240161129e989796959493929190611c63565b6040516020818303038152906040529060e01b6020820180516001600160e01b0383818316178352505050506040516112d79190611cc6565b5f604051808303815f865af19150503d805f8114611310576040519150601f19603f3d011682016040523d82523d5f602084013e611315565b606091505b5091509150818015611328575080516020145b80156113575750808060200190518101906113439190611cdc565b6001600160e01b03191663bc197c8160e01b145b6113745760405163050ae5e960e31b815260040160405180910390fd5b50505b505050505050505050565b6001600160a01b0385163b1561086f575f80866001600160a01b031663f23a6e618a8a898989896040516024016113be96959493929190611cf7565b6040516020818303038152906040529060e01b6020820180516001600160e01b0383818316178352505050506040516113f79190611cc6565b5f604051808303815f865af19150503d805f8114611430576040519150601f19603f3d011682016040523d82523d5f602084013e611435565b606091505b5091509150818015611448575080516020145b80156114775750808060200190518101906114639190611cdc565b6001600160e01b03191663f23a6e6160e01b145b6113775760405163050ae5e960e31b815260040160405180910390fd5b80356001600160a01b03811681146114aa575f80fd5b919050565b5f80604083850312156114c0575f80fd5b6114c983611494565b946020939093013593505050565b6001600160e01b0319811681146114ec575f80fd5b50565b5f602082840312156114ff575f80fd5b813561150a816114d7565b9392505050565b602081525f82518060208401528060208501604085015e5f604082850101526040601f19601f83011684010191505092915050565b5f60208284031215611556575f80fd5b5035919050565b5f8083601f84011261156d575f80fd5b5081356001600160401b03811115611583575f80fd5b60208301915083602082850101111561159a575f80fd5b9250929050565b5f805f604084860312156115b3575f80fd5b8335925060208401356001600160401b038111156115cf575f80fd5b6115db8682870161155d565b9497909650939450505050565b5f8083601f8401126115f8575f80fd5b5081356001600160401b0381111561160e575f80fd5b6020830191508360208260051b850101111561159a575f80fd5b5f805f805f805f6080888a03121561163e575f80fd5b61164788611494565b965060208801356001600160401b0380821115611662575f80fd5b61166e8b838c016115e8565b909850965060408a0135915080821115611686575f80fd5b6116928b838c016115e8565b909650945060608a01359150808211156116aa575f80fd5b506116b78a828b0161155d565b989b979a50959850939692959293505050565b5f805f805f805f8060a0898b0312156116e1575f80fd5b6116ea89611494565b97506116f860208a01611494565b965060408901356001600160401b0380821115611713575f80fd5b61171f8c838d016115e8565b909850965060608b0135915080821115611737575f80fd5b6117438c838d016115e8565b909650945060808b013591508082111561175b575f80fd5b506117688b828c0161155d565b999c989b5096995094979396929594505050565b5f805f806040858703121561178f575f80fd5b84356001600160401b03808211156117a5575f80fd5b6117b1888389016115e8565b909650945060208701359150808211156117c9575f80fd5b506117d6878288016115e8565b95989497509550505050565b602080825282518282018190525f9190848201906040850190845b81811015611819578351835292840192918401916001016117fd565b50909695505050505050565b5f805f805f60608688031215611839575f80fd5b61184286611494565b945060208601356001600160401b038082111561185d575f80fd5b61186989838a016115e8565b90965094506040880135915080821115611881575f80fd5b5061188e888289016115e8565b969995985093965092949392505050565b5f805f805f608086880312156118b3575f80fd5b6118bc86611494565b9450602086013593506040860135925060608601356001600160401b038111156118e4575f80fd5b61188e8882890161155d565b5f8060208385031215611901575f80fd5b82356001600160401b03811115611916575f80fd5b611922858286016115e8565b90969095509350505050565b5f806040838503121561193f575f80fd5b8235915060208301358015158114611955575f80fd5b809150509250929050565b5f805f805f8060a08789031215611975575f80fd5b61197e87611494565b955061198c60208801611494565b9450604087013593506060870135925060808701356001600160401b038111156119b4575f80fd5b6119c089828a0161155d565b979a9699509497509295939492505050565b5f602082840312156119e2575f80fd5b61150a82611494565b5f805f606084860312156119fd575f80fd5b611a0684611494565b95602085013595506040909401359392505050565b600181811c90821680611a2f57607f821691505b602082108103611a4d57634e487b7160e01b5f52602260045260245ffd5b50919050565b634e487b7160e01b5f52604160045260245ffd5b601f821115611aab57805f5260205f20601f840160051c81016020851015611a8c5750805b601f840160051c820191505b81811015610a1b575f8155600101611a98565b505050565b6001600160401b03831115611ac757611ac7611a53565b611adb83611ad58354611a1b565b83611a67565b5f601f841160018114611b0c575f8515611af55750838201355b5f19600387901b1c1916600186901b178355610a1b565b5f83815260208120601f198716915b82811015611b3b5786850135825560209485019460019092019101611b1b565b5086821015611b57575f1960f88860031b161c19848701351681555b505060018560011b0183555050505050565b81835281816020850137505f828201602090810191909152601f909101601f19169091010190565b602081525f611ba4602083018486611b69565b949350505050565b634e487b7160e01b5f52603260045260245ffd5b8183525f6001600160fb1b03831115611bd7575f80fd5b8260051b80836020870137939093016020019392505050565b604081525f611c03604083018688611bc0565b8281036020840152611c16818587611bc0565b979650505050505050565b5f808335601e19843603018112611c36575f80fd5b8301803591506001600160401b03821115611c4f575f80fd5b60200191503681900382131561159a575f80fd5b6001600160a01b0389811682528816602082015260a0604082018190525f90611c8f908301888a611bc0565b8281036060840152611ca2818789611bc0565b90508281036080840152611cb7818587611b69565b9b9a5050505050505050505050565b5f82518060208501845e5f920191825250919050565b5f60208284031215611cec575f80fd5b815161150a816114d7565b6001600160a01b03878116825286166020820152604081018590526060810184905260a0608082018190525f90611d319083018486611b69565b9897505050505050505056fea2646970667358221220ad9018ce4fcc24eb6888ebbf1766eb867d29efa12d8edc5d90d17046fb40337a64736f6c63430008190033","linkReferences":{}},"methodIdentifiers":{"balanceOf(address,uint256)":"00fdd58e","balanceOfBatch(address[],uint256[])":"4e1273f4","burn(address,uint256,uint256)":"f5298aca","burnBatch(address,uint256[],uint256[])":"6b20c454","mint(address,uint256,uint256,bytes)":"731133e9","mintBatch(address,uint256[],uint256[],bytes)":"1f7fdffa","minter()":"07546172","name()":"06fdde03","onePerWallet(uint256)":"34a6123c","owner()":"8da5cb5b","safeBatchTransferFrom(address,address,uint256[],uint256[],bytes)":"2eb2c2d6","safeTransferFrom(address,address,uint256,uint256,bytes)":"f242432a","setMinter(address)":"fca3b5aa","setOnePerWallet(uint256,bool)":"a19e34d5","setTokenURI(uint256,string)":"162094c4","setTokenURIBatch(uint256[],string[])":"4bb99351","soulbound()":"0fad0f51","supportsInterface(bytes4)":"01ffc9a7","symbol()":"95d89b41","totalSupply(uint256)":"bd85b039","totalSupplyBatch(uint256[])":"77954ac2","transferOwnership(address)":"f2fde38b","uri(uint256)":"0e89341c"},"id":16}